:100000000C943E030C9482180C945B180C946603B9
:100010000C9466030C9466030C9466030C946603BC
:100020000C9466030C9466030C9466030C946603AC
:100030000C9466030C9466030C9466030C9466039C
:100040000C9411180C9466030C94DF170C94B917D8
:100050000C9466030C9466030C9466030C9466037C
:100060000C94A9180C94660300000000003E5B4F3E
:100070005B3E3E6B4F6B3E1C3E7C3E1C183C7E3C08
:10008000181C577D571C1C5E7F5E1C00183C180016
:10009000FFE7C3E7FF0018241800FFE7DBE7FF30A6
:1000A000483A060E2629792926407F050507407F14
:1000B00005253F5A3CE73C5A7F3E1C1C08081C1C87
:1000C0003E7F14227F22145F5F005F5F06097F017D
:1000D0007F006689956A606060606094A2FFA29468
:1000E00008047E040810207E201008082A1C080836
:1000F0001C2A08081E101010100C1E0C1E0C303884
:100100003E3830060E3E0E06000000000000005F84
:1001100000000007000700147F147F14242A7F2AA0
:100120001223130864623649562050000807030062
:10013000001C2241000041221C002A1C7F1C2A08AE
:10014000083E080800807030000808080808000011
:1001500060600020100804023E5149453E00427F85
:10016000400072494949462141494D331814127FD4
:100170001027454545393C4A494931412111090774
:100180003649494936464949291E000014000000F5
:1001900040340000000814224114141414140041C7
:1001A00022140802015909063E415D594E7C121184
:1001B000127C7F494949363E414141227F414141BC
:1001C0003E7F494949417F090909013E4141517337
:1001D0007F0808087F00417F41002040413F017FA8
:1001E000081422417F404040407F021C027F7F0470
:1001F00008107F3E4141413E7F090909063E4151B9
:10020000215E7F09192946264949493203017F01A8
:10021000033F4040403F1F2040201F3F4038403FA9
:10022000631408146303047804036159494D4300BF
:100230007F4141410204081020004141417F0402F6
:10024000010204404040404000030708002054548D
:1002500078407F284444383844444428384444286B
:100260007F385454541800087E090218A4A49C78BE
:100270007F0804047800447D40002040403D007F1A
:100280001028440000417F40007C047804787C08FA
:100290000404783844444438FC18242418182424CE
:1002A00018FC7C08040408485454542404043F44B3
:1002B000243C4040207C1C2040201C3C4030403CE2
:1002C00044281028444C9090907C4464544C440042
:1002D00008364100000077000000413608000201A6
:1002E0000204023C2623263C1EA1A161123A404092
:1002F000207A38545455592155557941225454780F
:1003000042215554784020545579400C1E527212A7
:100310003955555559395454545939555454580030
:1003200000457C410002457D420001457C407D1234
:1003300011127DF0282528F07C5455450020545496
:100340007C547C0A097F4932494949323A44444441
:100350003A324A4848303A4141217A3A424020787C
:10036000009DA0A07D3D4242423D3D4040403D3C7D
:1003700024FF2424487E4943662B2FFC2F2BFF09A2
:1003800029F620C0887E0903205454794100004496
:100390007D413048484A32384040227A007A0A0A81
:1003A000727D0D19317D2629292F282629292926F4
:1003B00030484D4020380808080808080808382F39
:1003C00010C8ACBA2F102834FA00007B00000814C3
:1003D0002A142222142A14085500550055AA55AA99
:1003E00055AAFF55FF55FF000000FF00101010FF39
:1003F00000141414FF001010FF00FF1010F010F094
:10040000141414FC001414F700FF0000FF00FF1484
:1004100014F404FC141417101F10101F101F1414D0
:10042000141F00101010F0000000001F101010101A
:100430001F10101010F010000000FF10101010100E
:1004400010101010FF10000000FF140000FF00FF4C
:1004500000001F10170000FC04F4141417101714E8
:1004600014F404F40000FF00F7141414141414140A
:10047000F700F7141414171410101F101F1414147D
:10048000F4141010F010F000001F101F0000001FE7
:1004900014000000FC140000F010F01010FF10FF1A
:1004A000141414FF141010101F00000000F010FFAF
:1004B000FFFFFFFFF0F0F0F0F0FFFFFF0000000093
:1004C00000FFFF0F0F0F0F0F3844443844FC4A4A17
:1004D0004A347E02020606027E027E0263554941CC
:1004E000633844443C04407E201E2006027E020203
:1004F00099A5E7A5991C2A492A1C4C7201724C3017
:100500004A4D4D303048784830BC625A463D3E49ED
:100510004949007E0101017E2A2A2A2A2A44445F91
:10052000444440514A444040444A51400000FF0185
:1005300003E080FF000008086B6B08361236243693
:10054000060F090F060000181800000010100030F8
:1005500040FF0101001F01011E00191D1712003C80
:100560003C3C3C0000000000FFE0FFD1AFFF32FF49
:10057000D0FFFEFFE0FFD1AEFFD0FFFEFFE0FFD1D6
:100580001000FFFEFFD0FFE0FFC1FFD1AED580A875
:100590003FD300408D142002A1C8DA1281CFD9F1D7
:1005A000DB402EA4A6AFFFD0FFFE00000000240019
:1005B00027002A0000000000250028002B004261CF
:1005C00074746572793A007553763A2000636F75DA
:1005D0006E74733A200043756D756C61746976654D
:1005E00020646F7365004176673A20007553762F5B
:1005F00068723A200043504D3A2000426574612FE2
:1006000047616D6D6100454C45564154454420415C
:100610004354495649545900564552592048494770
:1006200048004E4F524D414C204241434B47524FA0
:10063000554E440000000000230026002900040459
:10064000040404040404020202020202030303037A
:100650000303010204081020408001020408102056
:10066000010204081020000000080002010000033D
:1006700004070000000000000000C81911241FBE7C
:10068000CFEFD8E0DEBFCDBF27E0A2EBB3E001C0E3
:100690001D92A733B207E1F713E0A0E0B1E0EAEB67
:1006A000FDE402C005900D92A23BB107D9F713E01B
:1006B000CEE3D3E004C02197FE010E94DE24CD33B7
:1006C000D107C9F70E942D1B0C94DB260C94000067
:1006D000089580E0089528E030E040E8E0912607A2
:1006E000F0912707508190912D0790959523908345
:1006F000E0912407F091250790912C07582F54235F
:1007000089F05081952B9083E0912607F09127077F
:10071000908150912D07952B90834695215031095A
:10072000E9F60895508190959523EDCF8091C70506
:100730009091C805A091C905B091CA050196A11D67
:10074000B11D8093C7059093C805A093C905B093C8
:10075000CA05089508950895AF92BF92CF92DF928F
:10076000EF92FF920F931F93CF93DF936C017B0166
:100770008B01040F151FEB015E01AE18BF08C017F7
:10078000D10759F06991D601ED91FC910190F0816A
:10079000E02DC6010995892B79F7C501DF91CF912D
:1007A0001F910F91FF90EF90DF90CF90BF90AF908F
:1007B0000895FC01538D448D252F30E0842F90E067
:1007C000821B930B541710F0CF960895019708954C
:1007D000FC01918D828D981761F0A28DAE0FBF2F15
:1007E000B11D5D968C91928D9F5F9F73928F90E06B
:1007F00008958FEF9FEF0895FC01918D828D9817DA
:1008000031F0828DE80FF11D858D90E008958FEF16
:100810009FEF0895FC01918D228D892F90E0805CDF
:100820009F4F821B91098F73992708958BE196E062
:100830000E940A0421E0892B09F420E0822F089508
:1008400080E090E0892B29F00E94160481110C941D
:1008500000000895FC01A48DA80FB92FB11DA35A63
:10086000BF4F2C91848D90E001968F739927848FD0
:10087000A689B7892C93A089B1898C9183708064F3
:100880008C93938D848D981306C00288F389E02D94
:1008900080818F7D80830895EF92FF920F931F9345
:1008A000CF93DF93EC0181E0888F9B8D8C8D981323
:1008B0001AC0E889F989808185FF15C09FB7F8942F
:1008C000EE89FF896083E889F9898081837080647B
:1008D00080839FBF81E090E0DF91CF911F910F91C6
:1008E000FF90EF900895F62E0B8D10E00F5F1F4FD5
:1008F0000F731127E02E8C8D8E110CC00FB607FCE4
:10090000FACFE889F989808185FFF5CFCE010E9471
:100910002A04F1CFEB8DEC0FFD2FF11DE35AFF4FB1
:10092000F0829FB7F8940B8FEA89FB8980818062FF
:10093000CFCFCF93DF93EC01888D8823B9F0AA89BC
:10094000BB89E889F9898C9185FD03C0808186FD8A
:100950000DC00FB607FCF7CF8C9185FFF2CF8081D9
:1009600085FFEDCFCE010E942A04E9CFDF91CF9120
:100970000895833081F028F4813099F08230A9F015
:1009800008958730A9F08830C9F08430B1F480919F
:1009900080008F7D03C0809180008F7780938000DE
:1009A000089584B58F7784BD089584B58F7DFBCF7E
:1009B0008091B0008F778093B00008958091B0004F
:1009C0008F7DF9CFCF93DF93E5E7F6E08491E1E601
:1009D000F6E0D491EDE4F6E0C491CC23A1F08111CE
:1009E0000E94B904EC2FF0E0EE0FFF1FEC5CF94F12
:1009F000A591B491EC91ED2381E090E009F480E0C1
:100A0000DF91CF91089580E090E0FACF1F93CF93CC
:100A1000DF93282F30E0F901EA59F94F8491F90169
:100A2000EE5AF94FD491F901E25CF94FC491CC230D
:100A3000A9F0162F81110E94B904EC2FF0E0EE0FFF
:100A4000FF1FEC54FA4FA591B4918FB7F894EC9135
:100A5000111108C0D095DE23DC938FBFDF91CF91B9
:100A60001F910895DE2BF8CFCF93DF9390E0FC0128
:100A7000EE5AF94F2491825C994FFC0184918823AE
:100A8000D1F090E0880F991FFC01E655FA4FA5912F
:100A9000B491FC01EC54FA4FC591D49161110EC090
:100AA0009FB7F8948C91E22FE0958E238C93288148
:100AB000E223E8839FBFDF91CF9108958FB7F89429
:100AC000EC91E22BEC938FBFF6CF3FB7F894809177
:100AD000A0049091A104A091A204B091A30426B512
:100AE000A89B05C02F3F19F00196A11DB11D3FBF66
:100AF000BA2FA92F982F8827BC01CD01620F711D35
:100B0000811D911D42E0660F771F881F991F4A952E
:100B1000D1F708958F929F92AF92BF92CF92DF92BA
:100B2000EF92FF924B015C010E9465056B017C0115
:100B30000E9465056C197D098E099F09683E734006
:100B400081059105A8F321E0821A9108A108B10856
:100B500088EEC80E83E0D81EE11CF11C81149104BC
:100B6000A104B10429F7FF90EF90DF90CF90BF90E0
:100B7000AF909F908F9008950895DC011696ED91A7
:100B8000FC91179712968C91481B477081E090E07A
:100B900001C0880F4A95EAF7E60FF11D3081222344
:100BA00019F0832B8083089580958323FBCFFB016D
:100BB0004181DC0112962C911297421768F013962E
:100BC0002C911397241740F0608115962C91621791
:100BD00018F424810C94BD050895FC018081928154
:100BE000980F92832181921760F494819F5F948380
:100BF0009381890F821710F08FEF820F838381E03A
:100C0000089580E00895FC011282808181508383E1
:100C100014820895DB01ED91FC910994EF92FF920B
:100C20000F931F93CF93DF93C2E085E6E82EDFEFAB
:100C30009DE6F92E05E71EEF6091CA067091CB067E
:100C4000E092E406C093E5061092E706D093E6062C
:100C500024EE36E04BE388EC96E00E940A066091B1
:100C6000CA067091CB06F092E406C093E506109296
:100C7000E706D093E60624EE36E04BE388EC96E0F8
:100C80000E940A066091CA067091CB060093E406A2
:100C9000C093E5061092E7061093E60624EE36E0D0
:100CA0004BE388EC96E00E940A06CF5FC83021F63D
:100CB000DF91CF911F910F91FF90EF900895809158
:100CC000FE06823070F08091FC06883050F48091EE
:100CD000FD06853630F08091FB068C3710F40C94BD
:100CE0000E0608950B96FC01849108950A96FC0166
:100CF00084910895FC01849108950E947A068823C6
:100D000021F0823011F083E0089586E00895FC011F
:100D1000E60FF11D849190E0982F88273196E49199
:100D20008E0F911D089568E00C94870666E00C9480
:100D300087062EE93FE0009709F40895F9013197FD
:100D4000F1F70197F8CF50919E0460919D04409176
:100D50009C0430919B04A0919904B0919A04E09175
:100D60009704F09198049FB790939604F89498E0B4
:100D70002C9187FF0FC0252B2C932081242B2083BF
:100D8000880F208123232083915091F7809196042E
:100D90008FBF08952623F0CF90E0FC01E25CF94F6D
:100DA000E491F0E0EE0FFF1FEC54FA4F25913491DF
:100DB00030939A042093990470E0FB01E25CF94FB0
:100DC000E491F0E0EE0FFF1FEC54FA4F25913491BF
:100DD00030939804209397048E5A994FFC01849184
:100DE00080939E046E5A794FFB01649160939C043A
:100DF000609560939B04809580939D040895860F71
:100E0000911DFC0183A18F3F19F0642F0C940605FE
:100E10000895EF92FF920F931F93CF93DF93EC010E
:100E2000142F79016150673008F040C0E62FF0E0E0
:100E3000E45EF84F0C94DE242B0778075E07520718
:100E4000690723077507E901112381F189910E9440
:100E5000A3061150F9CF7C0183E2E80EF11C8E014C
:100E6000005D1F4FF70181917F018F3F49F061E0E5
:100E70000E94340561E0F701319780810E940605E8
:100E8000E016F10679F740E064E0CE010E94FF062B
:100E900040E065E0CE010E94FF066FA188A50E9498
:100EA000CC0604C08BA160E08F3F19F581E0DF9193
:100EB000CF911F910F91FF90EF90089541E062E074
:100EC0001123B9F040E064E00E94FF0640E062E0D8
:100ED000E1CF842F0E94A306E9CFF70184910E94FD
:100EE000A306FFEFEF1AFF0A11501111F6CFDECF64
:100EF00061E0CE010E94FF06D9CFDB011496ED918F
:100F0000FC9130E020E065E00994DB011496ED915E
:100F1000FC9130E020E062E00994DB011496ED9151
:100F2000FC9130E020E063E00994CF92DF92EF92F1
:100F3000FF920F931F93CF93DF938C017B016A0184
:100F400080E0F601C491811110C081E0CF3F49F0EB
:100F50004C2FB701C8010E947D07882309F444C0C3
:100F600080E0BFEFCB1ADB0AECCF4FEFCF3F89F326
:100F7000CE3FD9F1C03FA0F7C03E38F04C2F4F70A4
:100F8000B701C8010E948507EBCFC03D38F04C2F58
:100F90004F70B701C8010E948D07E2CFC03CF8F046
:100FA000D7011496ED91FC9130E020E040E064E040
:100FB000C8010995C295C07FCE5FD0E0CE010E94E6
:100FC0009906D7011496ED91FC9130E020E041E0C4
:100FD00064E0C8010995CE010E949906C1CFC7FD02
:100FE000BFCF8C2F90E0F8CF80E0DF91CF911F91A1
:100FF0000F91FF90EF90DF90CF900895AF92BF9246
:10100000CF92DF92FF920F931F93CF93DF936C01E8
:101010008B01F42EE90180E1481709F47EC08417A2
:1010200078F1AAE04A1709F461C0BFE04B1709F450
:101030007FC0F80102811381F2E3FF1609F4DDC0DD
:10104000FF1508F48EC085E1F81609F4DBC0A7E1AE
:10105000FA1609F4ECC0B4E1FB1265C0D80116968B
:10106000ED91FC91179715968C918E0F9F2F911DE6
:1010700011928E179F07E1F7C8010E94030653C023
:10108000E1E14E1709F451C0F5E14F13D2CFFB0156
:10109000A280B3804CE755E0C6010E949507D501B8
:1010A00014964C91406BB801C6010E947D0741E047
:1010B000B801C6010E948507F50126813781D80154
:1010C0001496ED91FC91D50115964C9166E0C60100
:1010D000099581111CC080E0DF91CF911F910F9184
:1010E000FF90DF90CF90BF90AF900895DB011496F2
:1010F000ED91FC9130E020E042E061E0C60109950D
:1011000044E855E0B801C6010E94950792CF40E03F
:10111000B801C6010E948D078CCF43E755E0B801A6
:10112000C6010E94950781E0D7CF48E655E0F7CF8A
:1011300041E0C6010E948D0740E0B801C6010E944F
:10114000850741E8B801C6010E947D074881B801C2
:10115000C6010E947D0740E0B801C6010E948D07CC
:10116000E2CFE6E4FE1609F46CC0F7E4FF1609F4DA
:101170006DC08BE3F812D7CF99818B8138E0390F9E
:10118000813031F0833011F0392F02C0392F98505F
:1011900021E0D80113964C91491708F420E041E072
:1011A000391708F040E091E0F8015281351708F452
:1011B00090E0322F342B932319F4242309F4B3CF76
:1011C000FA80D12CC12C843048F490E0FC01E35D1E
:1011D000FC4FC080875D9C4FDC01DC90F7FE04C0B3
:1011E000BE01C8010E94D70588818C0D8883898142
:1011F0008D0D8983FF0C91F796CFBE01C8010E9427
:10120000D70591CFC8010E94ED05882309F463CF6B
:10121000D8011696ED91FC91179715968C918E0F2B
:101220009F2F911D11928E179F07E1F77CCF188297
:10123000F80182818983858181508A8383818B83B0
:1012400072CFD80115968C9188836DCFF80181817A
:10125000FBCF20917304260F3327331F2132310532
:10126000ECF42091F105FC0190E080E0243069F07D
:1012700082E00895A09173042191AC014D5A5B4F17
:10128000A40FB52FB11D2C930196861798F380916A
:101290007304680F6093730480E0089581E00895FB
:1012A0001092F10581E08093F0051092CB0561E08A
:1012B00082E10E94060561E083E10E940605E9EBF8
:1012C000F0E080818E7F808380818D7F808388E4C1
:1012D0008093B80085E48093BC000895CF93DF939A
:1012E00091E0909352048823B9F0C091B800D09156
:1012F000BA008091BC008A7B8093BC0060E082E1F0
:101300000E94060560E083E10E9406050E945009E4
:10131000D093BA00C093B800DF91CF910895CF92D7
:10132000DF92EF92FF920F931F93CF93DF93D091B1
:101330001A0681E0D13208F09CC0C09119060E94C3
:1013400065056B017C018091F10581116CC082E023
:101350008093F10581E08093F0058FEF8093EF0596
:101360001092EE05D093ED05A9EFB5E0EDECF5E0B8
:1013700080E0D8138DC01092CC058091CC05CC0FA5
:10138000C82BC093CC058091CB05813009F084C077
:101390001092CB050E9465056B017C018091CC0504
:1013A0008093BB008091F3059091F405A091F50521
:1013B000B091F605892B8A2B8B2BA1F00E94650535
:1013C0000091F3051091F4052091F5053091F60593
:1013D0006C197D098E099F09061717072807390719
:1013E00008F442C08091BC0083FDD8CF85EC809387
:1013F000BC000E9465056B017C018091F105823083
:1014000009F44CC08091EF058F3F09F469C08091C9
:10141000EF05803209F466C08091EF05803309F44E
:1014200063C084E026C08091F3059091F405A091FB
:10143000F505B091F605892B8A2B8B2B09F483CF08
:101440000E9465050091F3051091F4052091F505C2
:101450003091F6056C197D098E099F09061717074B
:101460002807390708F06FCF8091F2050E946E09B6
:1014700085E01092F80510921A061092F705DF9198
:10148000CF911F910F91FF90EF90DF90CF90089533
:101490009D9191938F5F6DCF85EEA9CF8091F305DC
:1014A0009091F405A091F505B091F605892B8A2B52
:1014B0008B2B09F4A2CF0E9465050091F3051091D2
:1014C000F4052091F5053091F6056C197D098E091A
:1014D0009F09061717072807390708F08ECFC4CFD2
:1014E00080E0C7CF82E0C5CF83E0C3CF0895E0910D
:1014F000A9048091A804E81730F4F0E0EE5CFB4FFB
:10150000808190E008958FEF9FEF08959091A90456
:101510008091A8042FEF3FEF981748F4E92FF0E0EF
:10152000EE5CFB4F208130E09F5F9093A904C901DE
:1015300008958091A8049091A904891B990B08959E
:10154000CF92DF92EF92FF920F931F93CF93DF938F
:101550007C01CB018A012091F705222389F0EB0160
:101560006B01C40ED51ECC15DD0569F06991D7015C
:10157000ED91FC910190F081E02DC7010995F3CF29
:10158000642F0E942909C801DF91CF911F910F910B
:10159000FF90EF90DF90CF900895CF93DF931F924D
:1015A000CDB7DEB769832091F7052223F9F02091AA
:1015B0001A06203258F021E030E0FC013383228308
:1015C00090E080E00F90DF91CF9108958091F80531
:1015D000E82FF0E0E750FA4F998190838F5F809376
:1015E000F80580931A0681E090E0ECCF61E0CE012F
:1015F00001960E942909F7CFCF93C82F80911E072B
:101600008F3FB1F1E0912807F091290780819091F7
:101610002E07892B8083E0912A07F0912B07908178
:1016200080912F07809589238083E0912807F0918E
:101630002907908180912E0780958923808380914E
:101640002307882389F0CEBD00000DB407FEFDCF2F
:101650008EB5E0912807F0912907808190912E079F
:10166000892B8083CF9108958C2F0E946B03F1CF3B
:1016700080911C0791E09093F705809319061092D2
:10168000F80510921A0660E088EB96E00E94CD0AF9
:101690006C2F88EB96E00E94CD0ACF910C948F09B5
:1016A000DF92EF92FF920F931F93CF93DF9381E22C
:1016B0000E94FC0A80E00E94FC0A8FE70E94FC0A5C
:1016C00082E20E94FC0A80E00E94FC0A83E00E9401
:1016D000FC0A80911E078F3F09F442C0E091280761
:1016E000F0912907808190912E07892B8083E091CA
:1016F0002A07F0912B07808190912F07892B8083F7
:10170000E0912807F0912907908180912E0780951C
:1017100089238083CDE0D1E00DE013E089919091A1
:1017200023079923D1F08EBD00000DB407FEFDCF35
:101730008EB50C171D0791F7E0912807F091290746
:10174000808190912E07892B8083DF91CF911F910B
:101750000F91FF90EF90DF9008950E946B03E9CF07
:101760000091B8008CE08093B800CDE0D1E0DD249A
:10177000D39480911C07D092F7058093190610929C
:10178000F80510921A0660E488EB96E00E94CD0AF4
:101790007E0110E1F70161917F0188EB96E00E94E4
:1017A000CD0A1150B9F70E948F096096F3E0CD3051
:1017B000DF07F9F60093B800C8CF3F924F925F92CF
:1017C0006F927F928F929F92AF92BF92CF92DF9251
:1017D000EF92FF920F931F93CF93DF93EC01B62EFE
:1017E000FCAC9BAC6C0124E0C20ED11CE98DFA8DDF
:1017F000C6010995882E08851985C8010E947A06B8
:10180000E82E888599850E947D06682E81E07724E0
:101810007A94E81202C02FE0722E888599850E9482
:101820007606E82E888599850E947206A82E8885FE
:1018300099850E949306E0E6EB1578F4009769F02D
:10184000080F191F91E6E92EAB14C0F41C8A1F8AF9
:10185000188E1D8A1E8A80E0A2C0888599850E9404
:101860009606F0E4FB1538F4009729F0080F191FCD
:1018700081E4E82EE9CF0F5E1F4FE6CFAE1430F3C0
:10188000862D90E0F80124912F3F31F40F5F1F4F18
:10189000AE14E1F2E394F6CFBE1074C0888599854A
:1018A0000E947A0698012F5F3F4FF801882319F0B4
:1018B000823009F050C084918F8BF9012491288FD8
:1018C000F8013396E491EC8BF8013496E491ED8BBA
:1018D000F8013596E491EE8B0115110509F4BBCFA3
:1018E000888599850E947D06388D7F2C731A9E8984
:1018F000791A780C9FEF930F970D28AD4AAD4715D5
:1019000008F449C0921718F4971508F047C02F89BA
:101910006D88690C9FEF920F960D4FA959AD561522
:1019200008F454C0941718F4961508F037C0080F3F
:10193000111D295F522E569456945694432E470CEF
:101940005E01F0E2AF0EB11C852C912C741431F1C4
:10195000362C780151C08491982F9F7092509E8BA5
:1019600082958F708D8BF9012491822F8F70888FD3
:1019700022952F702F8BF8013296E491E295EF704B
:10198000EC8BAACF3296E491E721E80FF92FF11DF5
:101990000E0F1F1F7DCF921708F0B6CF8C899BAD1D
:1019A000890F8BAF81E090E0DF91CF911F910F9174
:1019B000FF90EF90DF90CF90BF90AF909F908F906F
:1019C0007F906F905F904F903F900895941708F02C
:1019D000ABCFE4CFF70184916E817F8138A279A2E9
:1019E0001BA28AA395014BE3C6010E940A06FFEFE2
:1019F000EF1AFF0A28E0320E8E2D801B851550F35A
:101A0000080D191D7394A2CF0F931F93CF93DF93EB
:101A1000EC018D89823009F453C0833009F4ACC0E5
:101A2000813009F05CC0EC81FD81E41BF50BAF0156
:101A3000421B530B77FD3FC08E819F81681779074A
:101A4000D4F557FF04C0240F351F50E040E08C81CF
:101A50009D81FA01E20FF31F8E179F071CF49C0172
:101A6000241B350B1216130634F5FB0177FD379650
:101A7000A3E0F595E795AA95E1F7F695FE2FEE27F9
:101A8000F795E795E40FF51FE35FFE4F6770772743
:101A900081E090E001C0880F6A95EAF7482F013095
:101AA000110509F472C008F47CC02E0F3F1F0230EC
:101AB000110509F483C0DF91CF911F910F91089513
:101AC000AC81BD81CD01861B970BBC0161507109B2
:101AD000EE81FF81E41BF50BAF01421B530B77FD39
:101AE000EACF8C819D81681779072CF757FF04C0D6
:101AF000240F351F50E040E08E819F81FA01E20FF4
:101B0000F31F8E179F071CF49C01241B350B121624
:101B100013068CF6922FA42FA695A695A69580E87D
:101B2000A89FD0011124A60FB71FA35FBE4F477017
:101B300009F457C058E0541B452F652F70E0FB0196
:101B4000EF5DFC4F8081251708F0B0C0621B710962
:101B50002FEF30E002C0359527956A95E2F7822392
:101B600001301105A9F108F464C00230110509F033
:101B7000A2CF2C9182272EC0AE81BF81CD01861BC2
:101B8000970BBC016150710955CF2E0F3F1FE21713
:101B9000F30709F490CF8191DF011197842B8C9387
:101BA000F6CF80952E0F3F1FE217F30709F483CF7E
:101BB0009191DF01119798239C93F6CFE217F307D9
:101BC00009F479CF8191DF01119784278C93F6CFA7
:101BD0002C91822B8C93941708F46DCF941BA058F2
:101BE000BF4F983008F447C00230110531F5FD01B0
:101BF000892F208120952083E058FF4F885088301E
:101C0000C0F728EF290F26952695269530E02F5FFF
:101C10003F4F3695322F222737952795A20FB31FB6
:101C2000977009F448CFE92FF0E0E75EFC4F808120
:101C300032C080952C918223CDCF81E001301105F7
:101C400009F080E08195FD01292F8083E058FF4F46
:101C500028502830D0F728EF290F2695269526956D
:101C600030E02F5F3F4F3695322F2227379527954B
:101C7000A20FB31F9770992309F41DCFE92FF0E04D
:101C8000E75EFC4F80810130110541F058F00230D1
:101C9000110509F010CF9C91892702C09C91892BD6
:101CA0008C9309CF80959C918923FACF013011053F
:101CB00009F48ECF08F4BDCF0230110509F459CFD5
:101CC0008DCF0F931F93CF93DF93EC018D898230DB
:101CD00009F45EC0833009F4B5C0813009F067C0F3
:101CE000AC81BD81CD01841B950BAC0141505109E4
:101CF00057FD49C08C819D81481759070CF043C09E
:101D000077FF04C0260F371F70E060E08E819F814F
:101D1000FB01E20FF31F8E179F071CF49C01261B8B
:101D2000370B121613067CF5922FA62FA695A695B3
:101D3000A69580E8A89FD0011124A40FB51FA35F2A
:101D4000BE4F677009F48FC048E0461B642F70E0F7
:101D5000FB01EF5DFC4F8081241708F002C1621B7C
:101D600071092FEF30E002C0359527956A95E2F7AB
:101D700082230130110509F46DC008F49CC00230C3
:101D8000110509F4F8C0DF91CF911F910F910895CB
:101D9000EC81FD81E61BF70BAE81BF81CD01841B79
:101DA000950BAC0141505109BF01621B730B57FDEC
:101DB000EACF8E819F81481759072CF777FF04C01F
:101DC000260F371F70E060E08C819D81FB01E20FE0
:101DD000F31F8E179F071CF49C01261B370B12164E
:101DE00013068CF6FA0157FD379693E0F595E795C3
:101DF0009A95E1F7F695FE2FEE27F795E795E60F12
:101E0000F71FE35FFE4F4770552781E090E001C068
:101E1000880F4A95EAF7482F0130110509F488C068
:101E200008F492C02E0F3F1F0230110509F0ABCF0E
:101E3000E217F30709F4A7CF8191DF0111978427F7
:101E40008C93F6CFEE81FF81E61BF70BBF01621B7F
:101E5000730B4ECF2C91822B8C93941708F493CF55
:101E6000941BA058BF4F983008F447C002301105AA
:101E700031F5FD01892F208120952083E058FF4F07
:101E800088508830C0F728EF290F2695269526958B
:101E900030E02F5F3F4F3695322F22273795279519
:101EA000A20FB31F977009F46ECFE92FF0E0E75E41
:101EB000FC4F808132C080952C918223CDCF81E070
:101EC0000130110509F080E08195FD01292F808303
:101ED000E058FF4F28502830D0F728EF290F2695DB
:101EE0002695269530E02F5F3F4F3695322F2227DB
:101EF00037952795A20FB31F9770992309F443CF05
:101F0000E92FF0E0E75EFC4F80810130110541F0E0
:101F100058F00230110509F036CF9C91892702C094
:101F20009C91892B8C932FCF80959C918923FACFFC
:101F30002E0F3F1FE217F30709F425CF8191DF0130
:101F40001197842B8C93F6CF80952E0F3F1F2E1761
:101F50003F0709F418CF9191DF01119798239C93C3
:101F6000F6CF0130110509F475CF08F4A4CF023083
:101F7000110509F075CF2C9182276ECFDC0177FD1A
:101F800067C018968D919C911997681779070CF086
:101F90005FC057FD5DC01A968D919C911B974817A5
:101FA00059070CF055C055968C9155978230B9F071
:101FB000833041F1813049F414968D919C91841BBA
:101FC000950BAB01BC01615071092130310521F144
:101FD00008F43FC02230310509F458C00895149622
:101FE000ED91FC911597E61BF70BBF01615071094C
:101FF00016968D919C91FC01E41BF50BAF014150AD
:102000005109E3CF16968D919C91861B970BBA01CF
:10201000AC0141505109D9CFFA0157FD3796A3E0E1
:10202000F595E795AA95E1F7F695FE2FEE27F7953A
:10203000E795E60FF71FE35FFE4F4770552721E056
:1020400030E001C0220F4A95EAF78081822B80831D
:102050000895FA0157FD379623E0F595E7952A95FF
:10206000E1F7F695FE2FEE27F795E795E60FF71FB8
:10207000E35FFE4F4770552781E090E001C0880F75
:102080004A95EAF7809590818923E1CFFA0157FDBF
:10209000379683E0F595E7958A95E1F7F695FE2F5B
:1020A000EE27F795E795E60FF71FE35FFE4F4770C2
:1020B000552721E030E001C0220F4A95EAF78081E0
:1020C0008227C5CF0895FC016370658B848195815B
:1020D00026813781613039F0633029F0918780871C
:1020E00033872287089531872087938782870895D1
:1020F0002F923F924F925F926F927F928F929F9218
:10210000AF92BF92CF92DF92EF92FF920F931F9305
:10211000CF93DF93CDB7DEB769970FB6F894DEBFE4
:102120000FBECDBF998F888F5B011A01D22E1F83FE
:102130000E833701C982DC0158962D913C91599745
:102140002115310509F004C118968D919C911997BC
:10215000681779070CF0C0C11A968D919C911B9756
:10216000481759070CF0B8C18C2C912CFB0126E0C4
:10217000C29EE00DF11D1124F987E8871E161F0687
:102180000CF0AAC1A40193E0440F551F9A95E1F702
:102190005D874C87CA01820D931D181619060CF035
:1021A0009BC157968C91811104C05FEA5D1508F4BC
:1021B000D394A88DB98DED91FC9111970284F3858C
:1021C000E02DCD010995F5013596F98BE88BBB82A1
:1021D000AA82250188E690E08A199B099C0145E0C6
:1021E000D49E200D311D11243B8B2A8BEA89FB895B
:1021F000E40DF51D24913D822C82D12CC12C622F3F
:1022000070E07F876E87E88DF98DA081B18120FF16
:102210007CC0F981F13009F069C01C96ED91FC9108
:102220002E813F81A1014C0D5D1DB201888D998DDC
:102230000995EE85FF85F595E7952E2F4FEFC41A8A
:10224000D40A6C817D81680D791D7D836C8378E073
:10225000C716D104A1F68FEF481A580AAA81BB818C
:10226000A80DB91DBB83AA83E889F989E415F50592
:1022700009F0BCCF2E813F8126153705A9F0A88D26
:10228000B98DED91FC91B981B13009F051C0B50122
:102290006B5F7F4F0088F189E02D830128E030E0FB
:1022A000A101888D998D0995A88DB98DED91FC912D
:1022B00011970688F789E02DCD0169960FB6F8943D
:1022C000DEBF0FBECDBFDF91CF911F910F91FF9069
:1022D000EF90DF90CF90BF90AF909F908F907F90C6
:1022E0006F905F904F903F902F9009941E96ED91C4
:1022F000FC91EE80FF80840194014C815D816A81B4
:102300007B81888D998D099594CF2E813F812615EB
:10231000370509F48ECF3981313029F41C96ED91BF
:10232000FC9193017FCF1E96ED91FC917301E3CF59
:1023300068857985681979090684F785E02D730128
:102340000C851D859401A101888D998D0995ACCFCF
:10235000F90134969491329745915491D91AB7E086
:10236000DB9E400D511D1124F90125913491398BCB
:10237000288BFA0145905490FA0132966490319678
:10238000C49032961491319604913981323008F418
:102390008AC0E12E012E000CFF08402F002E000CF9
:1023A000550B59874887A88DB98DED91FC911197F0
:1023B0000284F385E02DCD010995B9818B2E912CF6
:1023C000E89CC001E99C900DF89C900D1124FC0143
:1023D000EA0DFB1DFF87EE871C82D12C712C9B869A
:1023E0008A869101200F311D07FD3A953D8B2C8B7C
:1023F000A501410F511D17FD5A955F8B4E8B7C1423
:1024000008F052CF872D90E048855985480F591F15
:102410006A857B85469F9001479F300D569F300D02
:102420001124D901A20DB31DBD87AC87EE85FF85B0
:10243000FB83EA83B12CA12C2C893D89280F391FFD
:102440003B8B2A8B8C818A0DA61408F040C08770C4
:1024500041F4C2010196E889F989E40DF51DD49093
:102460002C01D7FE15C0A88DB98DED91FC91B981D5
:10247000B130F1F40484F585E02D2E813F814A8945
:102480005B896E897F896A0D7B1D888D998D099581
:10249000DD0CEFEFAE1ABE0A2A813B81280D391DF3
:1024A0003B832A83CFCF19861886F12CE12C7BCF72
:1024B0000684F785E02DEE80FF80840194014C8531
:1024C0005D856A817B81888D998D0995E1CF3C81FD
:1024D000360D3C83739493CF69960FB6F894DEBFA4
:1024E0000FBECDBFDF91CF911F910F91FF90EF9065
:1024F000DF90CF90BF90AF909F908F907F906F9024
:102500005F904F903F902F900895AF92BF92CF92DF
:10251000EF92FF920F931F93CF93DF93EC01262F3F
:10252000888D998D009709F04FC06A30C9F41D86D7
:102530001C868C8998E0899F900111248E859F8547
:10254000820F931F9F878E8781E090E0DF91CF916C
:102550001F910F91FF90EF90CF90BF90AF90089593
:102560006D3091F3CC888E898823C1F08C859D8550
:10257000E6E0CE9E800D911D1124488559854817AF
:10258000590764F44E855F851D861C86F8E0CF9E52
:10259000C0011124840F951F9F878E87EA88FB88CE
:1025A000088919894E855F856C857D85CE010E94DD
:1025B00078102C898C859D8536E0239F800D911D98
:1025C00011249D878C87C0CF6A3069F41D861C86D4
:1025D000FC013696E4912C898E859F85E29F800DC3
:1025E000911D1124AFCF6D3009F4AECFFC013496AC
:1025F0003491631708F4A8CF3196E491E61708F4F4
:10260000A3CFFC01329645915491E62FE31BFF0BBB
:1026100037E03E9F50013F9FB00C1124A40EB51E21
:10262000F501329634913196E4913323A1F1EE23F2
:1026300091F1CC88F5013596E4914E89442301F15E
:102640000E2E000CFF0BE30FF11DCE9EA001CF9EBE
:10265000500D11246C857D85460F571F688579853F
:10266000641775076CF44E855F851D861C8606967B
:10267000FC018491C89E400D511D11245F874E8737
:10268000EA88FB88088919894E855F856C857D8578
:10269000CE010E947810F5013496E4912C898C8546
:1026A0009D85E29F800D911D11248BCF6F927F92AB
:1026B0008F929F92AF92BF92CF92DF92EF92FF9252
:1026C0000F931F93CF93DF93EC016B015A013901F4
:1026D0004801E881F9810284F385E02D0995E881BC
:1026E000F9810288F389E02D87019301A501B601E4
:1026F000CE010995A501480D591D41505109E881A8
:10270000F9810288F389E02D9301B601CE01099584
:10271000E881F9810088F189E02D9401A501B601D5
:10272000CE010995C60CD71CB60161507109E8812C
:10273000F9810088F189E02D9401A501CE01099568
:10274000E881F9810688F789E02DCE01DF91CF91EC
:102750001F910F91FF90EF90DF90CF90BF90AF90BF
:102760009F908F907F906F9009946F927F928F923D
:102770009F92AF92BF92CF92DF92EF92FF920F9310
:102780001F93CF93DF935C01EB016A01490138018C
:102790008701DC01ED91FC916217730719F564164E
:1027A00075062CF0962D872D3A01C92ED82E96014C
:1027B000261937092F5F3F4F048CF58DE02DA301BB
:1027C000BE01C5010995DF91CF911F910F91FF9037
:1027D000EF90DF90CF90BF90AF909F908F907F90C1
:1027E0006F9008954615570591F42617370724F082
:1027F000892D4B01C22FD82F9E01281939092F5F2F
:102800003F4F068CF78DE02DA601B401DACF02848C
:10281000F385E02D0995D501ED91FC910488F589AA
:10282000E02D83019401A601BE01C5010995D501E2
:10283000ED91FC910688F789E02DC501DF91CF91DC
:102840001F910F91FF90EF90DF90CF90BF90AF90CE
:102850009F908F907F906F900994EF92FF920F93CB
:102860001F93DC011A960D911C911B9718962D91C0
:102870003C911997ED91FC9100A0F1A1E02D7B0115
:1028800050E040E070E060E009951F910F91FF90EB
:10289000EF9008954F925F926F927F928F929F92E6
:1028A000AF92BF92CF92DF92EF92FF920F931F935E
:1028B000CF93DF936C012B015A0139014801DC01F0
:1028C000ED91FC910284F385E02D0995E201640C01
:1028D000751CD601ED91FC91C615D7055CF40088F6
:1028E000F189E02D87019401A501BE01C60109957A
:1028F0002196EFCF0688F789E02DC601DF91CF91B1
:102900001F910F91FF90EF90DF90CF90BF90AF900D
:102910009F908F907F906F905F904F9009948F92CF
:102920009F92AF92BF92CF92DF92EF92FF920F935E
:102930001F93CF93DF93EC015B014A016901E881AA
:10294000F9810284F385E02D099595012C0D3D1D3B
:1029500021503109E881F9810488F589E02D780159
:102960008401A401B501CE010995E881F9810688A9
:10297000F789E02DCE01DF91CF911F910F91FF904C
:10298000EF90DF90CF90BF90AF909F908F90099481
:102990008F929F92AF92BF92CF92DF92EF92FF926F
:1029A0000F931F93CF93DF93EC015B014A01690101
:1029B0007801E881F9810284F385E02D0995C80C3E
:1029C000D91C860101501109E881F9810488F58933
:1029D000E02D9501A401B501CE010995E881F981A9
:1029E0000688F789E02DCE01DF91CF911F910F91DD
:1029F000FF90EF90DF90CF90BF90AF909F908F901F
:102A00000994EF92FF920F931F93DC01ED91FC91DB
:102A100000A0F1A1E02D09951F910F91FF90EF907B
:102A200008950F931F93DC01ED91FC91068CF78DB7
:102A3000E02D09951F910F9108950F931F93DC01CD
:102A4000ED91FC91048CF58DE02D09951F910F916E
:102A50000895DC01ED91FC910084F185E02D09944D
:102A60002F923F924F925F926F927F928F929F929E
:102A7000AF92BF92CF92DF92EF92FF920F931F938C
:102A8000CF93DF9300D000D000D0CDB7DEB73C01AC
:102A90006A013E832D83FC82EB825801A41AB50A99
:102AA000B7FE03C0B194A194B1088D809E80861AB0
:102AB000970A97FE03C09194819491088A149B040D
:102AC0005CF0902F812F0D811E819D838E839C2D24
:102AD0008D2D6B01692F782F0C151D055CF09D81E4
:102AE0008E817E836D83692F782F902F812F8601B1
:102AF000C92ED82E1601201A310A2B012D813E81B4
:102B0000421A530A57FE03C051944194510871016F
:102B100037FE03C03FEFE31AF30AF594E7948D8183
:102B20009E81861797075CF5A1E0B0E0BA83A98380
:102B3000C016D1064CF1D301ED91FC910484F585CA
:102B4000E02D2B813C81A8016D817E818A149B043C
:102B50001CF04D815E81B801C3010995E418F508A8
:102B6000F7FE0AC02D813E8189819A81280F391F85
:102B70003E832D83E20CF31C0F5F1F4FD9CF2FEF45
:102B80003FEF3A832983D4CF26960FB6F894DEBF61
:102B90000FBECDBFDF91CF911F910F91FF90EF90AE
:102BA000DF90CF90BF90AF909F908F907F906F906D
:102BB0005F904F903F902F900895089590E080E0AF
:102BC0000895FB0101900020E9F73197AF01461B02
:102BD000570B0C94AC030F931F93CF93DF938C018F
:102BE000D0E0C0E0F801EC0FFD1F6491662341F0D6
:102BF00082E097E00E948512892B11F02196F2CF96
:102C00006DE873E082E097E00E94E1158C0F9D1F54
:102C1000DF91CF911F910F9108958F929F92AF9264
:102C2000BF92EF92FF920F931F93CF93DF93CDB795
:102C3000DEB7A1970FB6F894DEBF0FBECDBF7C0103
:102C4000FA01CB0119A2223008F42AE08E010F5DAF
:102C50001F4F822E912CB12CA12CBF01A5019401F4
:102C60000E94BC24F901CA016A300CF5605DD801EC
:102C70006E938D01232B242B252B79F790E080E098
:102C8000109721F0BD01C7010E94E115A1960FB672
:102C9000F894DEBF0FBECDBFDF91CF911F910F9192
:102CA000FF90EF90BF90AF909F908F900895695CD8
:102CB000DECFCF93DF93BC0182E097E00E94E11565
:102CC000EC016DE873E082E097E00E94E1158C0F63
:102CD0009D1FDF91CF910895CF92DF92EF92FF92E7
:102CE000CF93DF936C01990FEE08FF08F7FE23C026
:102CF0006DE282E097E00E948512EC01442755279F
:102D0000BA014C195D096E097F092AE082E097E05B
:102D10000E940D16C80FD91F6DE873E082E097E09E
:102D20000E94E1158C0F9D1FDF91CF91FF90EF90D6
:102D3000DF90CF9008952AE0B701A60182E097E0E6
:102D40000E940D16EC01E8CF4F925F926F927F9236
:102D50008F929F92AF92BF92EF92FF920F931F9329
:102D6000CF93DF938C014A015B01E22EAB0194010A
:102D7000CB01B4010E94B72460E973E081111AC04D
:102D800024013501E89477F82FEF3FEF4FE75FE735
:102D9000C301B2010E94B724811126C02FEF3FEF7B
:102DA0004FE75FE7C301B2010E9428221816E4F43E
:102DB00064E973E0C8010E94E115EC016DE873E07D
:102DC000C8010E94E1158C0F9D1FDF91CF911F91CB
:102DD0000F91FF90EF90BF90AF909F908F907F905A
:102DE0006F905F904F9008952FEF3FEF4FE75FE4B4
:102DF000C501B4010E94B22418161CF468E973E0FE
:102E0000D9CF2FEF3FEF4FE75FECC501B4010E9430
:102E1000282287FDF3CF20E030E0A901C501B401ED
:102E20000E942822D0E0C0E087FF09C06DE2C801FF
:102E30000E948512EC01B7FAB094B7F8B094FE2C5A
:102E4000712C60E070E080E09FE37E1440F420E0AD
:102E500030E040E251E40E940A247394F6CFA501C9
:102E600094010E949E234B015C010E9483242B014C
:102E70003C012AE0BC01A201C8010E940D16C80F46
:102E8000D91FEE2009F49ACFC301B2010E942D226E
:102E90009B01AC01C501B4010E949D234B015C0163
:102EA0006EE2C8010E948512C80FD91FFA948FEFF5
:102EB000F81609F483CF20E030E040E251E4C50188
:102EC000B4010E948E222B013C010E9483244B01FD
:102ED000B12CA12C2AE0B501A401C8010E940D1655
:102EE000C80FD91FC501B4010E942D229B01AC015E
:102EF000C301B2010E949D234B015C01D7CF0E9408
:102F0000C62685ED8093BC008091F3059091F40571
:102F1000A091F505B091F6050796A11DB11D23E01E
:102F2000B695A795979587952A95D1F72091BC00DE
:102F300024FD03C01092F10508954091F3055091CE
:102F4000F4056091F5057091F605452B462B472B4E
:102F500069F30097A105B10541F025E32A95F1F742
:102F600000000197A109B109E1CF8091F2050C940D
:102F70006E091F920F920FB60F9211242F933F9359
:102F80004F935F936F937F938F939F93AF93BF9371
:102F9000EF93FF938BE196E00E942A04FF91EF915B
:102FA000BF91AF919F918F917F916F915F914F9161
:102FB0003F912F910F900FBE0F901F9018951F9269
:102FC0000F920FB60F9211242F938F939F93EF932D
:102FD000FF93E0912B06F0912C068081E091310661
:102FE000F091320682FD1BC09081809134068F5F84
:102FF0008F7320913506821741F0E0913406F0E09E
:10300000E55EF94F958F80933406FF91EF919F9184
:103010008F912F910F900FBE0F901F901895808168
:10302000F4CF1F920F920FB60F9211242F933F935C
:103030008F939F93AF93BF938091AB049091AC0417
:10304000A091AD04B091AE0430919F0423E0230F12
:103050002D3758F50196A11DB11D20939F04809333
:10306000AB049093AC04A093AD04B093AE048091F4
:10307000A0049091A104A091A204B091A304019690
:10308000A11DB11D8093A0049093A104A093A2045C
:10309000B093A304BF91AF919F918F913F912F91D6
:1030A0000F900FBE0F901F90189526E8230F0296E1
:1030B000A11DB11DD2CF1F920F920FB60F921124F6
:1030C0002F933F934F935F936F937F938F939F9330
:1030D000AF93BF93EF93FF93E0910A01F0910B013F
:1030E0000995FF91EF91BF91AF919F918F917F9142
:1030F0006F915F914F913F912F910F900FBE0F9065
:103100001F9018951F920F920FB60F9211242F93B4
:103110003F934F935F936F937F938F939F93AF935F
:10312000BF93EF93FF93E0910801F0910901099596
:10313000FF91EF91BF91AF919F918F917F916F918F
:103140005F914F913F912F910F900FBE0F901F9065
:1031500018951F920F920FB60F9211242F933F9341
:103160004F935F936F937F938F939F93AF93BF938F
:10317000EF93FF938091B900887F803609F44AC0AD
:10318000F0F5883209F4A7C018F5803109F49BC026
:10319000B8F4882309F4F9C0883009F494C0FF9189
:1031A000EF91BF91AF919F918F917F916F915F91BF
:1031B0004F913F912F910F900FBE0F901F90189538
:1031C000883109F488C0803251F78093EF0514C02C
:1031D000803409F49DC040F48033B9F38833F9F6A4
:1031E0008093EF0585ECB0C0803509F485C0883543
:1031F00009F496C0883499F60E948117D0CF883997
:1032000009F48CC038F5883729F050F4883611F06D
:10321000803729F683E08093F1051092950457C01A
:10322000883809F47BC0803919F0803809F0B7CFAD
:1032300080919504803208F071C0E091950481E09E
:103240008E0F809395048091BB00F0E0EB58FB4F0C
:1032500080833DC0803B39F0E0F4803A09F479C0C6
:10326000883A09F09CCF84E08093F10510927404B1
:1032700010927304E091A604F091A704099580913F
:10328000730481110FC081E0809373041092530482
:1032900009C0803C09F4A6CF883C09F4A3CF883B41
:1032A00009F07DCFE091740481E08E0F8093740467
:1032B000F0E0ED5AFB4F80818093BB009091740445
:1032C0008091730429C08091CC058093BB0085EC6C
:1032D0008093BC0064CF9091EE058091ED05981726
:1032E00058F5E091EE0581E08E0F8093EE05F0E059
:1032F000E353FA4F8081E9CFE091EE0581E08E0F34
:103300008093EE058091BB00F0E0E353FA4F808399
:103310009091EE058091ED059817C8F285E8D8CF19
:10332000E091EE0581E08E0F8093EE058091BB0069
:10333000F0E0E353FA4F80838091F00581115CCF78
:1033400081E08093CB0584EA8093BC001092F10564
:1033500026CF85EC8093BC001092F10580919504F6
:10336000803230F4E0919504F0E0EB58FB4F10828E
:103370006091950470E0E091A404F091A50485E7C4
:1033800094E00995109295040ACF1092EF0534CF7E
:103390001F93CF93DF931F92CDB7DEB710921E0617
:1033A00010921D0688EE93E0A0E0B0E080931F0627
:1033B00090932006A0932106B093220625E333E0E4
:1033C00030931C0620931B0625EC30E03093280632
:1033D0002093270624EC30E030932A062093290618
:1033E00020EC30E030932C0620932B0621EC30E0CB
:1033F00030932E0620932D0622EC30E030933006D9
:1034000020932F0626EC30E03093320620933106CD
:103410001092340610923506109236061092370636
:103420001092BB061092BA068093BC069093BD061C
:10343000A093BE06B093BF0687E493E09093B906CD
:103440008093B80686E090E0909331078093300730
:1034500061E00E94340560E0809130070E9406051B
:1034600010923207109205071092040720E830E00E
:10347000309307072093060780E290E090930907B6
:103480008093080730930B0720930A0790930D074A
:1034900080930C071092170710920F0710920E07D7
:1034A000109211071092100781E0809316072FEFFA
:1034B0003FEF3093150720931407309313072093A1
:1034C0001207809318071092190710921B07109289
:1034D0001A0725E633E0309303072093020794E0B0
:1034E0009093200795E09093210793E09093220713
:1034F000809323071092C7061092C60629E533E091
:103500003093C5062093C4061092FF061092000760
:10351000109201071092CD061092CC061092CF06A1
:103520001092CE061092D1068093D00682E280934C
:10353000D2061092D7061092D606EBEEF6E029EFEF
:1035400036E08FEF81932E173F07E1F791E09093DC
:10355000E80629E633E03093DE062093DD069093FB
:10356000DF061092E0061092E10690E49093E206E6
:103570001092E30628E633E03093FA062093F9062A
:103580002DE033E03093CB062093CA0699E0909368
:10359000EF069AE09093F0069FE09093ED069EE090
:1035A0009093EC068093EB0630E020E04AE06DE07B
:1035B00073E088EC96E00E940A06182FE091F90665
:1035C000F091FA0683E00995E091F906F091FA0688
:1035D00080E009951123B1F16091CA067091CB0684
:1035E0009E012F5F3F4F46E488EC96E00E940A065A
:1035F00089818093C8066091CA067091CB069E01AE
:103600002F5F3F4F47E488EC96E00E940A068981CD
:103610008093C9066091CA067091CB0630E020E025
:1036200048E488EC96E00E940A068093D3066091F5
:10363000CA067091CB062BEF36E047E188EC96E0A6
:103640000E940A0689E593E09093C5068093C4061C
:103650000F90DF91CF911F910895CF93DF93CDB756
:10366000DEB72C970FB6F894DEBF0FBECDBF7894AF
:1036700084B5826084BD84B5816084BD85B5826077
:1036800085BD85B5816085BD80916E008160809328
:103690006E00109281008091810082608093810091
:1036A00080918100816080938100809180008160A1
:1036B000809380008091B10084608093B1008091FC
:1036C000B00081608093B00080917A008460809324
:1036D0007A0080917A00826080937A0080917A00EB
:1036E000816080937A0080917A00806880937A006C
:1036F0001092C1001092C7051092C8051092C9051A
:103700001092CA051092BD051092BE051092BF0519
:103710001092C0051092BB041092BC041092BD041C
:103720001092BE0484E090E09093C2058093C1059E
:1037300083E480937C0080917A00806480937A0097
:1037400080917A0086FDFCCF8091780060917900AD
:10375000762F682F072E000C880B990B0E942F22C2
:1037600020E030E840E454E40E940A2420E030E005
:1037700048EC52E40E948E226B017C01E0912B0602
:10378000F0912C0692E09083E0912706F0912806B4
:103790001082E0912906F0912A068FEC8083109226
:1037A0003306E0912F06F091300686E08083E091A9
:1037B0002D06F0912E06808180618083E0912D0698
:1037C000F0912E06808188608083E0912D06F09133
:1037D0002E06808180688083E0912D06F0912E0670
:1037E00080818F7D808390931D078CE380931C07DD
:1037F00080911E078F3F09F480C561E0809120070A
:103800000E94340561E0809122070E943405809176
:103810002207082E000C990BFC01E25CF94FE491A1
:10382000F0E0EE0FFF1FEC54FA4F259134913093E6
:10383000290720932807FC01EE5AF94FE491E09301
:103840002E0780912007082E000C990BFC01E25CEA
:10385000F94FE491F0E0EE0FFF1FEC54FA4F259181
:10386000349130932B0720932A07FC01EE5AF94F2D
:10387000E491E0932F078091230781113EC061E01E
:1038800080911E070E94340561E080911F070E940D
:10389000340580911F07082E000C990BFC01E25C97
:1038A000F94FE491F0E0EE0FFF1FEC54FA4F259131
:1038B00034913093270720932607FC01EE5AF94FE5
:1038C000E491E0932D0780911E07082E000C990BC0
:1038D000FC01E25CF94FE491F0E0EE0FFF1FEC54C5
:1038E000FA4F259134913093250720932407FC014A
:1038F000EE5AF94FE491E0932C0780912307882337
:1039000009F439C00FB70983F8948091AA04811192
:1039100027C0E8E4F6E08491ECE5F6E09491E82F26
:10392000F0E0EE0FFF1FE655FA4FA591B491EC9130
:10393000E92321F461E08AE00E94060561E08AE063
:103940000E9434058CB580618CBD8CB580648CBDC3
:1039500061E08DE00E94340561E08BE00E94340557
:103960008091AA048F5F8093AA0419811FBF80E50C
:103970008CBD81E08DBD8091210787FD1EC061E077
:103980000E94340561E0809121070E94060561E0F4
:1039900070E080E090E00E948A0560E0809121075D
:1039A0000E9406056AE070E080E090E00E948A05CF
:1039B00061E0809121070E9406058EEA0E94FC0AC0
:1039C00085ED0E94FC0A80E80E94FC0A88EA0E94B9
:1039D000FC0A8FE10E94FC0A83ED0E94FC0A80E051
:1039E0000E94FC0A80E40E94FC0A8DE80E94FC0A06
:1039F00084E10E94FC0A80E20E94FC0A80E00E94AE
:103A0000FC0A81EA0E94FC0A88EC0E94FC0A8AED0A
:103A10000E94FC0A82E00E94FC0A81E80E94FC0AE3
:103A20008FE80E94FC0A89ED0E94FC0A81EF0E9447
:103A3000FC0A8BED0E94FC0A80E40E94FC0A84EAE6
:103A40000E94FC0A86EA0E94FC0A8EE20E94FC0A9E
:103A50008FEA0E94FC0A00E012E0ADE0B1E0F8015C
:103A60001D923197E9F70E94500B10920F071092A8
:103A70000E0710921107109210078EEB95E00E942E
:103A8000EB15C701B6010E947C244B01CB010E94BB
:103A90006C168CE993E00E94591620E030E040E279
:103AA00051E4C701B6010E948E226B017C018AE0BD
:103AB000889DB001899D700D1124072E000C880B84
:103AC000990B0E942F229B01AC01C701B6010E94F5
:103AD0009D230E947C24CB010E946C168EE993E00A
:103AE0000E94591660ED77E080E090E00E948A0520
:103AF000ADE0B1E0F8011D923197E9F70E94500B5B
:103B000060E08FE00E94340560E082E00E943405AE
:103B100086E993E090930901809308018091690000
:103B20008C7F826080936900E89A0E94E20401978A
:103B300051F40E94E2041092C7051092C805109239
:103B4000C9051092CA052FB7F8948091AB049091E3
:103B5000AC04A091AD04B091AE042FBF4091C30559
:103B60005091C4056091C5057091C6058C019D01F9
:103B7000041B150B260B370BB901A80149395A4311
:103B80006105710508F457C48093C3059093C4057B
:103B9000A093C505B093C605C090C705D090C805D1
:103BA000E090C905F090CA05A091C105B091C20589
:103BB000A70196010E944C236093BD057093BE053A
:103BC0008093BF059093C00527E930E040E050E0C6
:103BD0000E94BC24CA01B9010E942D226093B9053C
:103BE0007093BA058093BB059093BC051092B50500
:103BF0001092B6051092B7051092B8058091B305E2
:103C00009091B405FC01EE0FFF1FEE0FFF1FE15472
:103C1000FB4FC082D182E282F38201969093B40579
:103C20008093B305CD9721F41092B4051092B3059B
:103C3000E091B305F091B405EE0FFF1FEE0FFF1FEB
:103C4000E154FB4F80819181A281B381A70196014C
:103C5000281B390B4A0B5B0BCA01B9010E942D22AC
:103C60006B017C0127EF38E74FE556E30E948E2277
:103C70009B01AC0160E070E080E89FE30E949D231F
:103C80009B01AC01C701B6010E940A246093BB04EA
:103C90007093BC048093BD049093BE0431E03093D4
:103CA000160741E050E050931507409314075093D6
:103CB0001307409312078AE090E090930F078093D8
:103CC0000E0710921107109210078BEF95E00E94DB
:103CD000EB1510920F0710920E07AAE0B0E0B09318
:103CE0001107A093100785EF95E00E94EB15409116
:103CF000BD055091BE056091BF057091C0052AE0D9
:103D000082E097E00E940D166DE873E082E097E094
:103D10000E94E11510920F0710920E07E4E1F0E007
:103D2000F0931107E09310078CEE95E00E94EB15DD
:103D30004091B9055091BA056091BB057091BC05E1
:103D400022E030E082E097E00E94A41610920F0774
:103D500010920E070EE110E0109311070093100768
:103D600086EE95E00E94EB154091BB045091BC0497
:103D70006091BD047091BE0422E030E082E097E0E3
:103D80000E94A41622E330E030930F0720930E0721
:103D900048E250E0509311074093100786ED95E0FC
:103DA0000E94EB1510920F0710920E0782E390E02D
:103DB00090931107809310078DEC95E00E94EB150E
:103DC0004091C7055091C8056091C9057091CA0519
:103DD0002AE082E097E00E940D166DE873E082E031
:103DE00097E00E94E11510920F0710920E07ACE3C6
:103DF000B0E0B0931107A093100787EC95E00E9404
:103E0000EB154091B5055091B6056091B7057091DD
:103E1000B80522E030E082E097E00E94A4160E94FC
:103E20005F06E4E6F0E0F0930F07E0930E070AE088
:103E300010E0109311070093100790E080E00E94BB
:103E40006C168CE993E00E94591690E080E00E9485
:103E50006C168EE993E00E945916C090B905D09077
:103E6000BA05E090BB05F090BC052AE037ED43EAC7
:103E70005CE3C701B6010E94282287FF55C2109259
:103E80000F0710920E0726E430E0309311072093BD
:103E9000100782E296E00E94EB1561E170E090E08D
:103EA00080E00E9409261C01009709F4ABC2DC01E6
:103EB0001C9261EA73E00E94D426E0E1F0E0FA8708
:103EC000E9870091B9051091BA052091BB053091A1
:103ED000BC050D831E832F8338872091B704309152
:103EE000B8044091B9045091BA0429833A834B83B2
:103EF0005C8320E030E040E85FE369817A818B8178
:103F00009C810E949E236093B7047093B8048093B1
:103F1000B9049093BA0480910C01882309F428C154
:103F200010920C01EE24E394F12C00E110E02FE755
:103F300030E050E040E070E060E082E097E00E9416
:103F40004A1411E01093160782E090E090930F0757
:103F500080930E0744E050E0509311074093100700
:103F600049855A85B10182E097E00E94AC036DE873
:103F700073E082E097E00E94E11520E030E046E93E
:103F800052E469817A818B819C810E948E2220E09B
:103F900030E048EC52E40E940A2420E030E040EF98
:103FA00051E40E949E236093B3047093B404809301
:103FB000B5049093B60420E030E040EF51EC6D8101
:103FC0007E818F8198850E948E2220E030E040E83B
:103FD0005AE30E948E2220E030E048E452E40E943E
:103FE0009E236093AF047093B0048093B1049093C8
:103FF000B2041093160783E090E09A878987812C9A
:10400000912C540120E030E040EF51ECC501B401A7
:104010000E948E2220E030E040E85AE30E948E2287
:1040200020E030E048E452E40E949E232B013C0152
:104030000E947C246B0120E030E0A901C501B4019D
:104040000E94282201E010E02EE430E0882311F0E5
:1040500023E030E0A6016BE170E082E097E00E948F
:10406000610EA3E0B0E0B0930F07A0930E0720E02D
:1040700030E040E450E4C301B2010E949D230E945D
:104080007C24709311076093100730E020E0B501A5
:10409000A40182E097E00E94A41620E030E040E016
:1040A00054E4C501B4010E949E234B015C01E985E3
:1040B000FA853197FA87E987EF2B09F0A3CF95E0CE
:1040C000692E712CC12CD12C7601F1E0F0931607EA
:1040D00020E030E046E952E4C701B6010E948E229A
:1040E00020E030E048EC52E40E940A2420E030E076
:1040F00040EF51E40E949E230E947C244B0120E06B
:1041000030E0A901C701B6010E94282201E010E0B9
:1041100021E230E044E150E0882321F023E030E068
:1041200042E350E0B40182E097E00E94040D9092D7
:104130000F0780920E0708E310E010931107009319
:10414000100730E020E0B701A60182E097E00E946E
:10415000A41620E030E048EC51E4C701B6010E940B
:104160009E236B017C0111E0611A710809F0ADCF4B
:1041700020E030E046E952E469817A818B819C81BC
:104180000E948E2220E030E048EC52E40E940A2493
:1041900020E030E040EF51E40E949E2369837A835F
:1041A0008B839C8320E030E040EF51EC6D817E8179
:1041B0008F8198850E948E2220E030E040E85AE30B
:1041C0000E948E2220E030E048E452E40E949E23C8
:1041D0004B015C0169817A818B819C810E947C24E6
:1041E0006D837E838F839887C501B4010E947C24F0
:1041F00069877A878B879C876091AF047091B00440
:104200008091B1049091B2040E947C242B016091B2
:10421000B3047091B4048091B5049091B6040E94E7
:104220007C24EE24E394F12C09851A852D813E81AE
:10423000A20182E097E00E94B51320E030E040E860
:104240005FE3C501B4010E949D230E947C2469871D
:104250007A878B879C8720E030E040E85FE36091BD
:10426000AF047091B0048091B1049091B2040E94A7
:104270009D230E947C242B016091B3047091B404AF
:104280008091B5049091B6040E947C2409851A851A
:104290002D813E81A20182E097E00E94B513298121
:1042A0003A814B815C812093B3043093B4044093F2
:1042B000B5045093B6048092AF049092B004A092DB
:1042C000B104B092B2040E94500B2114310419F0D1
:1042D000C1010E94802520E030E048EC52E460916A
:1042E000B7047091B8048091B9049091BA040E9407
:1042F000B22418160CF089C0FFCF1092A9041092B6
:10430000A8041092F80510921A060E9450098AEA31
:1043100093E09093A7048093A6048BEA93E0909394
:10432000A5048093A40427CB20E030E040EC5FE3B9
:10433000C701B6010E94282287FF32C02FE832EC65
:1043400045EF5CE3C701B6010E94B224181644F59C
:1043500061E0809130070E94060531E0309332071A
:1043600064EF71E080E090E00E948A0560E0809157
:1043700030070E9406051092320764EF71E080E07A
:1043800090E00E948A0510920F0710920E0746E4F3
:1043900050E0509311074093100786E096E07BCDE4
:1043A0002DEC3CEC4CEC5FE3C701B6010E942822E7
:1043B00087FF73CD61E0809130070E94060581E0A0
:1043C0008093320768EC70E080E090E00E948A05FC
:1043D00060E0809130070E9406051092320768EC79
:1043E00070E080E090E00E948A0510920F07109222
:1043F0000E0786E490E0909311078093100788E100
:1044000096E049CD1A8619865CCD68EE73E080E0AF
:1044100090E00E948A051092C7051092C80510927C
:10442000C9051092CA051092BB041092BC041092E8
:10443000BD041092BE0480E090E0892B09F475CB96
:104440000E941604882309F470CB0E9400006DCBF3
:104450000E946A2208F481E00895E89409C097FB5D
:104460003EF490958095709561957F4F8F4F9F4F4B
:104470009923A9F0F92F96E9BB279395F69587958F
:1044800077956795B795F111F8CFFAF4BB0F11F452
:1044900060FF1BC06F5F7F4F8F4F9F4F16C08823F9
:1044A00011F096E911C0772321F09EE8872F762F2F
:1044B00005C0662371F096E8862F70E060E02AF070
:1044C0009A95660F771F881FDAF7880F969587955C
:1044D00097F90895990F0008550FAA0BE0E8FEEF31
:1044E00016161706E807F907C0F012161306E407B8
:1044F000F50798F0621B730B840B950B39F40A26B1
:1045000061F0232B242B252B21F408950A2609F48E
:10451000A140A6958FEF811D811D08950E94A122C3
:104520000C9412230E94042338F00E940B2320F0E5
:10453000952311F00C94FB220C94012311240C946C
:1045400046230E94232370F3959FC1F3950F50E0FB
:10455000551F629FF001729FBB27F00DB11D639F35
:10456000AA27F00DB11DAA1F649F6627B00DA11DDB
:10457000661F829F2227B00DA11D621F739FB00D81
:10458000A11D621F839FA00D611D221F749F3327F1
:10459000A00D611D231F849F600D211D822F762F8A
:1045A0006A2F11249F5750409AF0F1F088234AF067
:1045B000EE0FFF1FBB1F661F771F881F91505040D3
:1045C000A9F79E3F510580F00C94FB220C944623E2
:1045D0005F3FE4F3983ED4F3869577956795B7955A
:1045E000F795E7959F5FC1F7FE2B880F911D969574
:1045F000879597F9089597F99F6780E870E060E0E4
:1046000008959FEF80EC089500240A94161617066B
:1046100018060906089500240A94121613061406B3
:1046200005060895092E0394000C11F4882352F016
:10463000BB0F40F4BF2B11F460FF04C06F5F7F4FCE
:104640008F4F9F4F089557FD9058440F551F59F0B5
:104650005F3F71F04795880F97FB991F61F09F3F6F
:1046600079F087950895121613061406551FF2CF98
:104670004695F1DF08C0161617061806991FF1CFE8
:1046800086957105610508940895E894BB2766270F
:104690007727CB0197F908950E948E23A59F900D4F
:1046A000B49F900DA49F800D911D112408952F9209
:1046B0003F924F925F926F927F928F929F92AF92B2
:1046C000BF92CF92DF92EF92FF920F931F93CF93FF
:1046D000DF93CDB7DEB7CA1BDB0B0FB6F894DEBF96
:1046E0000FBECDBF09942A88398848885F846E84BC
:1046F0007D848C849B84AA84B984C884DF80EE8006
:10470000FD800C811B81AA81B981CE0FD11D0FB60E
:10471000F894DEBF0FBECDBFED010895A29FB0019A
:10472000B39FC001A39F700D811D1124911DB29FE5
:10473000700D811D1124911D08955058BB27AA2783
:104740000E94B5230C9412230E94042338F00E9487
:104750000B2320F039F49F3F19F426F40C94012325
:104760000EF4E095E7FB0C94FB22E92F0E94232333
:1047700058F3BA17620773078407950720F079F496
:10478000A6F50C9445230EF4E0950B2EBA2FA02D20
:104790000B01B90190010C01CA01A0011124FF27EE
:1047A000591B99F0593F50F4503E68F11A16F040E9
:1047B000A22F232F342F4427585FF3CF46953795E8
:1047C0002795A795F0405395C9F77EF41F16BA0BAD
:1047D000620B730B840BBAF09150A1F0FF0FBB1F5B
:1047E000661F771F881FC2F70EC0BA0F621F731FA4
:1047F000841F48F4879577956795B795F7959E3F01
:1048000008F0B0CF9395880F08F09927EE0F979591
:10481000879508950E941E240C9412230E940B2356
:1048200058F00E94042340F029F45F3F29F00C94D3
:10483000FB2251110C9446230C9401230E94232344
:1048400068F39923B1F3552391F3951B550BBB27BF
:10485000AA2762177307840738F09F5F5F4F220F04
:10486000331F441FAA1FA9F335D00E2E3AF0E0E8FB
:1048700032D091505040E695001CCAF72BD0FE2F45
:1048800029D0660F771F881FBB1F261737074807D9
:10489000AB07B0E809F0BB0B802DBF01FF27935891
:1048A0005F4F3AF09E3F510578F00C94FB220C9438
:1048B00046235F3FE4F3983ED4F38695779567955A
:1048C000B795F7959F5FC9F7880F911D96958795C6
:1048D00097F90895E1E0660F771F881FBB1F6217E5
:1048E00073078407BA0720F0621B730B840BBA0BA3
:1048F000EE1F88F7E09508950E9483246894B11113
:104900000C94462308950E942B2388F09F5798F01B
:10491000B92F9927B751B0F0E1F0660F771F881FC4
:10492000991F1AF0BA95C9F714C0B13091F00E94DE
:104930004523B1E008950C944523672F782F8827ED
:10494000B85F39F0B93FCCF3869577956795B39505
:10495000D9F73EF490958095709561957F4F8F4F74
:104960009F4F08950E946A2208F48FEF08950E94D5
:104970006A22880B990B0895A1E21A2EAA1BBB1B71
:10498000FD010DC0AA1FBB1FEE1FFF1FA217B3071B
:10499000E407F50720F0A21BB30BE40BF50B661F31
:1049A000771F881F991F1A9469F7609570958095F5
:1049B00090959B01AC01BD01CF010895EE0FFF1F43
:1049C0000590F491E02D09940F931F93CF93DF93FB
:1049D0008230910510F482E090E0E0913507F0918B
:1049E000360730E020E0B0E0A0E0309799F42115E0
:1049F000310509F44AC0281B390B24303105D8F59C
:104A00008A819B816115710589F1FB019383828302
:104A1000FE0111C04081518102811381481759075D
:104A2000E0F04817590799F4109761F012960C932B
:104A3000129713961C933296CF01DF91CF911F915D
:104A40000F9108950093350710933607F4CF211581
:104A5000310551F04217530738F0A901DB019A01E3
:104A6000BD01DF01F801C1CFEF01F9CF9093360707
:104A700080933507CDCFFE01E20FF31F8193919311
:104A80002250310939832883D7CF209133073091C1
:104A90003407232B41F420911503309116033093F2
:104AA0003407209333072091130330911403211509
:104AB000310541F42DB73EB74091170350911803CB
:104AC000241B350BE0913307F0913407E217F3070D
:104AD000A0F42E1B3F0B2817390778F0AC014E5F6E
:104AE0005F4F2417350748F04E0F5F1F5093340770
:104AF00040933307819391939FCFF0E0E0E09CCF08
:104B0000CF93DF930097E9F0FC0132971382128272
:104B1000A0913507B0913607ED0130E020E0109705
:104B2000A1F420813181820F931F209133073091AE
:104B300034072817390709F061C0F0933407E09370
:104B40003307DF91CF910895EA01CE17DF07E8F52B
:104B50004A815B819E0141155105B1F7E901FB8353
:104B6000EA8349915991C40FD51FEC17FD0761F4F1
:104B7000808191810296840F951FE9019983888332
:104B8000828193819B838A83F0E0E0E012968D918D
:104B90009C9113970097B9F52D913C911197CD01F8
:104BA0000296820F931F2091330730913407281704
:104BB000390739F6309751F51092360710923507BC
:104BC000B0933407A0933307BCCFD383C283408113
:104BD0005181840F951FC817D90761F44E5F5F4F4D
:104BE00088819981480F591F518340838A819B8115
:104BF000938382832115310509F0B0CFF0933607F6
:104C0000E09335079ECFFD01DC01C0CF13821282F5
:104C1000D7CFB0E0A0E0EFE0F6E20C9459238C018E
:104C2000009751F4CB010E94E4248C01C801CDB758
:104C3000DEB7E0E10C947523FC01E60FF71F9C0141
:104C400022503109E217F30708F49DC0D901CD9134
:104C5000DC911197C617D70798F0C530D10530F30E
:104C6000CE0104978617970708F3C61BD70B229728
:104C7000C193D1936D937C93CF010E948025D6CFB1
:104C80005B01AC1ABD0A4C018C0E9D1EA09135072C
:104C9000B0913607512C412CF12CE12C109731F5B5
:104CA00080913307909134078815990509F05CC00D
:104CB0004616570608F058C08091130390911403CC
:104CC000009741F48DB79EB7409117035091180398
:104CD000841B950BE817F90708F055C0F0933407CB
:104CE000E0933307F90171836083A0CF8D919C918C
:104CF000119712966C90129713967C901397A815A3
:104D0000B90559F56C0142E0C40ED11CCA14DB048C
:104D100020F1AC014A195B09DA011296159780F06F
:104D20006282738251834083D9016D937C93E11435
:104D3000F10471F0D7011396FC93EE93129776CF9E
:104D400022968C0F9D1FF90191838083F301EFCF91
:104D5000F0933607E093350769CF4816590608F4F3
:104D60002C017D01D3019ACFCB010E94E4247C0168
:104D7000009749F0AE01B8010E94CB26C8010E94FD
:104D80008025870153CF10E000E050CF81E090E014
:104D9000F8940C94DB26FB01DC0102C001900D921B
:104DA00041505040D8F70895FB01DC0101900D926D
:0A4DB0000020E1F70895F894FFCF0A
:104DBA00084000000080B203BC05BC0501000000E9
:104DCA0000000000000000000000000000000000D9
:104DDA0000000000000000000000000000000000C9
:104DEA0000000000000000000000000000000000B9
:104DFA000000000000000000000000008080800029
:104E0A000000000000000000000000000000808098
:104E1A00C0C0000000000000000000000000000008
:104E2A000000000000000000000000000000000078
:104E3A000000000000000000000000000000000068
:104E4A000000000000000000000000000000000058
:104E5A000080C0E0F0F8FCF8E0000000000000006C
:104E6A0000000000000000000000808080808000B8
:104E7A00808000000000808080808000FFFFFF00AB
:104E8A000000008080808000008080000080FFFF9A
:104E9A008080008080008080808000808000000008
:104EAA000000808000008C8E84000080F8F8F88072
:104EBA0000000000000000000000000000F0F0F018
:104ECA00F0F0F0F0F0F0F0F0F0E0E0C08000E0FC8C
:104EDA00FEFFFFFF7FFFFFFFFFFF00000000000053
:104EEA000000000000000000FEFFC701010101836D
:104EFA00FFFF00007CFEC70101010183FFFFFF00E5
:104F0A0038FEC78301010183C7FFFF000001FFFFCD
:104F1A00010100FFFF0701010100007FFF8000007F
:104F2A0000FFFF7F0000FFFFFF000001FFFFFF01FE
:104F3A0000000000000000000000000000030F3F16
:104F4A007F7FFFFFFFFFFFFFFFE7C7C78F8F9FBF6F
:104F5A00FFFFC3C0F0FFFFFFFFFFFCFCFCFCFCFCF3
:104F6A00FCFCF8F8F0F0E0C00001030303030301BE
:104F7A00030300000000010303030301010301000E
:104F8A0000000103030303010103030000000303FC
:104F9A0000000003030000000000000001030303F7
:104FAA0003030100000001030100000003030100E4
:104FBA0000000000000000000000000000FE0700E2
:104FCA00010907000037078000000103070F1F3F90
:104FDA007F0080C0E0F0F8FCFE000100FF0100FF46
:104FEA0000000000004C04AC03D90399040A04E849
:104FFA0003FC0300000000CD0AA00ADE15760A9918
:10500A000A860A770A00000000DD0BAC03DE15DD14
:10501A0015000000008512AC03DE15DD15BE0F7603
:10502A000A291501151D1511153015760A63106226
:10503A0010040D610E4A142D14B51356130D0A00EF
:10504A006E616E00696E66006F7666002E0020251E
:10505A00007553762F68207673205365636F6E64EC
:02506A007300D1
:00000001FF
